{
  "contractName": "BitRage",
  "abi": [
    {
      "inputs": [],
      "stateMutability": "nonpayable",
      "type": "constructor"
    },
    {
      "inputs": [],
      "name": "poolFee",
      "outputs": [
        {
          "internalType": "uint24",
          "name": "",
          "type": "uint24"
        }
      ],
      "stateMutability": "view",
      "type": "function",
      "constant": true
    },
    {
      "inputs": [],
      "name": "sushiswapRouter",
      "outputs": [
        {
          "internalType": "contract ISwapRouter",
          "name": "",
          "type": "address"
        }
      ],
      "stateMutability": "view",
      "type": "function",
      "constant": true
    },
    {
      "inputs": [],
      "name": "token1",
      "outputs": [
        {
          "internalType": "address",
          "name": "",
          "type": "address"
        }
      ],
      "stateMutability": "view",
      "type": "function",
      "constant": true
    },
    {
      "inputs": [],
      "name": "token2",
      "outputs": [
        {
          "internalType": "address",
          "name": "",
          "type": "address"
        }
      ],
      "stateMutability": "view",
      "type": "function",
      "constant": true
    },
    {
      "inputs": [],
      "name": "uniswapRouter",
      "outputs": [
        {
          "internalType": "contract ISwapRouter",
          "name": "",
          "type": "address"
        }
      ],
      "stateMutability": "view",
      "type": "function",
      "constant": true
    },
    {
      "inputs": [
        {
          "internalType": "contract ISwapRouter",
          "name": "_address",
          "type": "address"
        }
      ],
      "name": "uniRouter",
      "outputs": [],
      "stateMutability": "nonpayable",
      "type": "function"
    },
    {
      "inputs": [
        {
          "internalType": "contract ISwapRouter",
          "name": "_address",
          "type": "address"
        }
      ],
      "name": "sushiRouter",
      "outputs": [],
      "stateMutability": "nonpayable",
      "type": "function"
    },
    {
      "inputs": [
        {
          "internalType": "address",
          "name": "_address",
          "type": "address"
        }
      ],
      "name": "changeToken1",
      "outputs": [],
      "stateMutability": "nonpayable",
      "type": "function"
    },
    {
      "inputs": [
        {
          "internalType": "address",
          "name": "_address",
          "type": "address"
        }
      ],
      "name": "changeToken2",
      "outputs": [],
      "stateMutability": "nonpayable",
      "type": "function"
    },
    {
      "inputs": [
        {
          "internalType": "uint256",
          "name": "amountIn",
          "type": "uint256"
        },
        {
          "internalType": "address",
          "name": "buyToken",
          "type": "address"
        },
        {
          "internalType": "address",
          "name": "sellToken",
          "type": "address"
        },
        {
          "internalType": "uint16",
          "name": "router",
          "type": "uint16"
        }
      ],
      "name": "swapUni",
      "outputs": [
        {
          "internalType": "uint256",
          "name": "amountOut",
          "type": "uint256"
        }
      ],
      "stateMutability": "nonpayable",
      "type": "function"
    }
  ],
  "bytecode": "0x608060405234801561001057600080fd5b50610cf2806100206000396000f3fe608060405234801561001057600080fd5b506004361061009e5760003560e01c806381ea727e1161006657806381ea727e14610149578063bb78c5ce14610165578063d21220a714610181578063e9240c2d1461019f578063ebf148c5146101bd5761009e565b8063089fe6aa146100a357806325be124e146100c1578063735de9f7146100df5780637a952061146100fd5780637b381a481461012d575b600080fd5b6100ab6101d9565b6040516100b89190610b1e565b60405180910390f35b6100c96101df565b6040516100d69190610a83565b60405180910390f35b6100e7610205565b6040516100f49190610ac7565b60405180910390f35b6101176004803603810190610112919061087e565b610229565b6040516101249190610b39565b60405180910390f35b610147600480360381019061014291906107da565b6104ac565b005b610163600480360381019061015e91906107da565b6104f0565b005b61017f600480360381019061017a919061082c565b610534565b005b610189610577565b6040516101969190610a83565b60405180910390f35b6101a761059d565b6040516101b49190610ac7565b60405180910390f35b6101d760048036038101906101d2919061082c565b6105c3565b005b610bb881565b600360009054906101000a900473ffffffffffffffffffffffffffffffffffffffff1681565b60008054906101000a900473ffffffffffffffffffffffffffffffffffffffff1681565b6000808261ffff161415610267576102628360008054906101000a900473ffffffffffffffffffffffffffffffffffffffff1687610607565b610295565b61029483600160009054906101000a900473ffffffffffffffffffffffffffffffffffffffff1687610607565b5b60006040518061010001604052808573ffffffffffffffffffffffffffffffffffffffff1681526020018673ffffffffffffffffffffffffffffffffffffffff168152602001610bb862ffffff1681526020013373ffffffffffffffffffffffffffffffffffffffff16815260200142815260200187815260200160008152602001600073ffffffffffffffffffffffffffffffffffffffff16815250905060008361ffff1614156103f35760008054906101000a900473ffffffffffffffffffffffffffffffffffffffff1673ffffffffffffffffffffffffffffffffffffffff1663414bf389826040518263ffffffff1660e01b815260040161039a9190610b02565b602060405180830381600087803b1580156103b457600080fd5b505af11580156103c8573d6000803e3d6000fd5b505050506040513d601f19601f820116820180604052508101906103ec9190610855565b91506104a3565b600160009054906101000a900473ffffffffffffffffffffffffffffffffffffffff1673ffffffffffffffffffffffffffffffffffffffff1663414bf389826040518263ffffffff1660e01b815260040161044e9190610b02565b602060405180830381600087803b15801561046857600080fd5b505af115801561047c573d6000803e3d6000fd5b505050506040513d601f19601f820116820180604052508101906104a09190610855565b91505b50949350505050565b80600260006101000a81548173ffffffffffffffffffffffffffffffffffffffff021916908373ffffffffffffffffffffffffffffffffffffffff16021790555050565b80600360006101000a81548173ffffffffffffffffffffffffffffffffffffffff021916908373ffffffffffffffffffffffffffffffffffffffff16021790555050565b806000806101000a81548173ffffffffffffffffffffffffffffffffffffffff021916908373ffffffffffffffffffffffffffffffffffffffff16021790555050565b600260009054906101000a900473ffffffffffffffffffffffffffffffffffffffff1681565b600160009054906101000a900473ffffffffffffffffffffffffffffffffffffffff1681565b80600160006101000a81548173ffffffffffffffffffffffffffffffffffffffff021916908373ffffffffffffffffffffffffffffffffffffffff16021790555050565b6000808473ffffffffffffffffffffffffffffffffffffffff1663095ea7b360e01b858560405160240161063c929190610a9e565b604051602081830303815290604052907bffffffffffffffffffffffffffffffffffffffffffffffffffffffff19166020820180517bffffffffffffffffffffffffffffffffffffffffffffffffffffffff83818316178352505050506040516106a69190610a6c565b6000604051808303816000865af19150503d80600081146106e3576040519150601f19603f3d011682016040523d82523d6000602084013e6106e8565b606091505b509150915081801561071657506000815114806107155750808060200190518101906107149190610803565b5b5b610755576040517f08c379a000000000000000000000000000000000000000000000000000000000815260040161074c90610ae2565b60405180910390fd5b5050505050565b60008135905061076b81610c49565b92915050565b60008151905061078081610c60565b92915050565b60008135905061079581610c77565b92915050565b6000813590506107aa81610c8e565b92915050565b6000813590506107bf81610ca5565b92915050565b6000815190506107d481610ca5565b92915050565b6000602082840312156107ec57600080fd5b60006107fa8482850161075c565b91505092915050565b60006020828403121561081557600080fd5b600061082384828501610771565b91505092915050565b60006020828403121561083e57600080fd5b600061084c84828501610786565b91505092915050565b60006020828403121561086757600080fd5b6000610875848285016107c5565b91505092915050565b6000806000806080858703121561089457600080fd5b60006108a2878288016107b0565b94505060206108b38782880161075c565b93505060406108c48782880161075c565b92505060606108d58782880161079b565b91505092959194509250565b6108ea81610b7b565b82525050565b6108f981610b7b565b82525050565b600061090a82610b54565b6109148185610b5f565b9350610924818560208601610c16565b80840191505092915050565b61093981610bf2565b82525050565b600061094c600283610b6a565b91507f53410000000000000000000000000000000000000000000000000000000000006000830152602082019050919050565b6101008201600082015161099660008501826108e1565b5060208201516109a960208501826108e1565b5060408201516109bc6040850182610a30565b5060608201516109cf60608501826108e1565b5060808201516109e26080850182610a4e565b5060a08201516109f560a0850182610a4e565b5060c0820151610a0860c0850182610a4e565b5060e0820151610a1b60e0850182610a21565b50505050565b610a2a81610bb9565b82525050565b610a3981610bd9565b82525050565b610a4881610bd9565b82525050565b610a5781610be8565b82525050565b610a6681610be8565b82525050565b6000610a7882846108ff565b915081905092915050565b6000602082019050610a9860008301846108f0565b92915050565b6000604082019050610ab360008301856108f0565b610ac06020830184610a5d565b9392505050565b6000602082019050610adc6000830184610930565b92915050565b60006020820190508181036000830152610afb8161093f565b9050919050565b600061010082019050610b18600083018461097f565b92915050565b6000602082019050610b336000830184610a3f565b92915050565b6000602082019050610b4e6000830184610a5d565b92915050565b600081519050919050565b600081905092915050565b600082825260208201905092915050565b6000610b8682610bb9565b9050919050565b60008115159050919050565b6000610ba482610b7b565b9050919050565b600061ffff82169050919050565b600073ffffffffffffffffffffffffffffffffffffffff82169050919050565b600062ffffff82169050919050565b6000819050919050565b6000610bfd82610c04565b9050919050565b6000610c0f82610bb9565b9050919050565b60005b83811015610c34578082015181840152602081019050610c19565b83811115610c43576000848401525b50505050565b610c5281610b7b565b8114610c5d57600080fd5b50565b610c6981610b8d565b8114610c7457600080fd5b50565b610c8081610b99565b8114610c8b57600080fd5b50565b610c9781610bab565b8114610ca257600080fd5b50565b610cae81610be8565b8114610cb957600080fd5b5056fea264697066735822122058cd3935bb03e57db7bd497d2cc7612d0614945ec86a7a67e07a8ff890c71fd964736f6c63430008000033",
  "immutableReferences": {},
  "source": "// SPDX-License-Identifier: MIT\r\npragma solidity <=0.8.0;\r\npragma abicoder v2;\r\n\r\nimport \"@uniswap/v3-periphery/contracts/libraries/TransferHelper.sol\";\r\nimport \"@uniswap/v3-periphery/contracts/interfaces/ISwapRouter.sol\";\r\n\r\n//import \"@uniswap/v2-periphery/contracts/interfaces/IUniswapV2Router02.sol\";\r\n//import \"@uniswap/v2-periphery/contracts/UniswapV2Router02.sol\";\r\n\r\ncontract BitRage {\r\n    ISwapRouter public uniswapRouter;\r\n    ISwapRouter public sushiswapRouter;\r\n    // This example swaps token1/token2 for single path swaps\r\n\r\n    address public token1;\r\n    address public token2;\r\n\r\n    // For this example, we will set the pool fee to 0.3%.\r\n    uint24 public constant poolFee = 3000;\r\n\r\n    constructor() {}\r\n\r\n    function uniRouter(ISwapRouter _address) public {\r\n        uniswapRouter = _address;\r\n    }\r\n\r\n    function sushiRouter(ISwapRouter _address) public {\r\n        sushiswapRouter = _address;\r\n    }\r\n\r\n    function changeToken1(address _address) public {\r\n        token1 = _address;\r\n    }\r\n\r\n    function changeToken2(address _address) public {\r\n        token2 = _address;\r\n    }\r\n\r\n    /// @notice swapExactInputSingle swaps a fixed amount of DAI for a maximum possible amount of WETH9\r\n    /// using the DAI/WETH9 0.3% pool by calling `exactInputSingle` in the swap router.\r\n    /// @dev The calling address must approve this contract to spend at least `amountIn` worth of its DAI for this function to succeed.\r\n    /// @param amountIn The exact amount of DAI that will be swapped for WETH9.\r\n    /// @param buyToken The token address when recieving in the swap\r\n    /// @param sellToken The token address when sending in the swap\r\n    /// @param router Flag for determing Uniswap or Sushiswap router\r\n    /// @return amountOut The amount received.\r\n    function swapUni(\r\n        uint256 amountIn,\r\n        address buyToken,\r\n        address sellToken,\r\n        uint16 router\r\n    ) external returns (uint256 amountOut) {\r\n        // Approve the router to spend DAI.\r\n        if (router == 0) {\r\n            TransferHelper.safeApprove(sellToken, address(uniswapRouter), amountIn);\r\n        } else {\r\n            TransferHelper.safeApprove(sellToken, address(sushiswapRouter), amountIn);\r\n        }\r\n\r\n        // Naively set amountOutMinimum to 0. In production, use an oracle or other data source to choose a safer value for amountOutMinimum.\r\n        // We also set the sqrtPriceLimitx96 to be 0 to ensure we swap our exact input amount.\r\n        ISwapRouter.ExactInputSingleParams memory params = ISwapRouter\r\n            .ExactInputSingleParams({\r\n                tokenIn: sellToken,\r\n                tokenOut: buyToken,\r\n                fee: poolFee,\r\n                recipient: msg.sender,\r\n                deadline: block.timestamp,\r\n                amountIn: amountIn,\r\n                amountOutMinimum: 0,\r\n                sqrtPriceLimitX96: 0\r\n            });\r\n\r\n        // The call to `exactInputSingle` executes the swap.\r\n        if (router == 0) {\r\n            amountOut = uniswapRouter.exactInputSingle(params);\r\n        } else {\r\n            amountOut = sushiswapRouter.exactInputSingle(params);\r\n        }\r\n    }\r\n}\r\n",
  "sourcePath": "C:\\Users\\nickn\\Flashloan\\src\\contracts\\BitRage.sol",
  "compiler": {
    "name": "solc",
    "version": "0.8.0+commit.c7dfd78e.Emscripten.clang"
  },
  "schemaVersion": "3.4.4",
  "updatedAt": "2022-04-12T17:14:49.536Z",
  "networkType": "ethereum",
  "devdoc": {
    "kind": "dev",
    "methods": {
      "swapUni(uint256,address,address,uint16)": {
        "details": "The calling address must approve this contract to spend at least `amountIn` worth of its DAI for this function to succeed.",
        "params": {
          "amountIn": "The exact amount of DAI that will be swapped for WETH9.",
          "buyToken": "The token address when recieving in the swap",
          "router": "Flag for determing Uniswap or Sushiswap router",
          "sellToken": "The token address when sending in the swap"
        },
        "returns": {
          "amountOut": "The amount received."
        }
      }
    },
    "version": 1
  },
  "userdoc": {
    "kind": "user",
    "methods": {
      "swapUni(uint256,address,address,uint16)": {
        "notice": "swapExactInputSingle swaps a fixed amount of DAI for a maximum possible amount of WETH9 using the DAI/WETH9 0.3% pool by calling `exactInputSingle` in the swap router."
      }
    },
    "version": 1
  }
}