{
  "contractName": "PrintMoney",
  "abi": [
    {
      "inputs": [
        {
          "internalType": "contract IPoolAddressesProvider",
          "name": "_lendingPool",
          "type": "address"
        }
      ],
      "stateMutability": "nonpayable",
      "type": "constructor"
    },
    {
      "anonymous": false,
      "inputs": [
        {
          "indexed": true,
          "internalType": "address",
          "name": "previousOwner",
          "type": "address"
        },
        {
          "indexed": true,
          "internalType": "address",
          "name": "newOwner",
          "type": "address"
        }
      ],
      "name": "OwnershipTransferred",
      "type": "event"
    },
    {
      "inputs": [],
      "name": "ADDRESSES_PROVIDER",
      "outputs": [
        {
          "internalType": "contract IPoolAddressesProvider",
          "name": "",
          "type": "address"
        }
      ],
      "stateMutability": "view",
      "type": "function"
    },
    {
      "inputs": [],
      "name": "POOL",
      "outputs": [
        {
          "internalType": "contract IPool",
          "name": "",
          "type": "address"
        }
      ],
      "stateMutability": "view",
      "type": "function"
    },
    {
      "inputs": [],
      "name": "owner",
      "outputs": [
        {
          "internalType": "address",
          "name": "",
          "type": "address"
        }
      ],
      "stateMutability": "view",
      "type": "function"
    },
    {
      "inputs": [],
      "name": "renounceOwnership",
      "outputs": [],
      "stateMutability": "nonpayable",
      "type": "function"
    },
    {
      "inputs": [
        {
          "internalType": "address",
          "name": "newOwner",
          "type": "address"
        }
      ],
      "name": "transferOwnership",
      "outputs": [],
      "stateMutability": "nonpayable",
      "type": "function"
    },
    {
      "inputs": [
        {
          "internalType": "address",
          "name": "asset",
          "type": "address"
        },
        {
          "internalType": "uint256",
          "name": "amount",
          "type": "uint256"
        },
        {
          "internalType": "uint256",
          "name": "premium",
          "type": "uint256"
        },
        {
          "internalType": "address",
          "name": "initiator",
          "type": "address"
        },
        {
          "internalType": "bytes",
          "name": "params",
          "type": "bytes"
        }
      ],
      "name": "executeOperation",
      "outputs": [
        {
          "internalType": "bool",
          "name": "",
          "type": "bool"
        }
      ],
      "stateMutability": "nonpayable",
      "type": "function"
    },
    {
      "inputs": [
        {
          "internalType": "address",
          "name": "_asset",
          "type": "address"
        }
      ],
      "name": "brrr",
      "outputs": [],
      "stateMutability": "nonpayable",
      "type": "function"
    }
  ],
  "bytecode": "0x60c06040523480156200001157600080fd5b5060405162000fc138038062000fc1833981810160405281019062000037919062000283565b808073ffffffffffffffffffffffffffffffffffffffff1660808173ffffffffffffffffffffffffffffffffffffffff16815250508073ffffffffffffffffffffffffffffffffffffffff1663026b1d5f6040518163ffffffff1660e01b8152600401602060405180830381865afa158015620000b8573d6000803e3d6000fd5b505050506040513d601f19601f82011682018060405250810190620000de9190620002e6565b73ffffffffffffffffffffffffffffffffffffffff1660a08173ffffffffffffffffffffffffffffffffffffffff16815250505062000132620001266200013960201b60201c565b6200014160201b60201c565b5062000318565b600033905090565b60008060009054906101000a900473ffffffffffffffffffffffffffffffffffffffff169050816000806101000a81548173ffffffffffffffffffffffffffffffffffffffff021916908373ffffffffffffffffffffffffffffffffffffffff1602179055508173ffffffffffffffffffffffffffffffffffffffff168173ffffffffffffffffffffffffffffffffffffffff167f8be0079c531659141344cd1fd0a4f28419497f9722a3daafe3b4186f6b6457e060405160405180910390a35050565b600080fd5b600073ffffffffffffffffffffffffffffffffffffffff82169050919050565b600062000237826200020a565b9050919050565b60006200024b826200022a565b9050919050565b6200025d816200023e565b81146200026957600080fd5b50565b6000815190506200027d8162000252565b92915050565b6000602082840312156200029c576200029b62000205565b5b6000620002ac848285016200026c565b91505092915050565b620002c0816200022a565b8114620002cc57600080fd5b50565b600081519050620002e081620002b5565b92915050565b600060208284031215620002ff57620002fe62000205565b5b60006200030f84828501620002cf565b91505092915050565b60805160a051610c756200034c6000396000818161035001526104ce015260008181610150015261019f0152610c756000f3fe608060405234801561001057600080fd5b506004361061007d5760003560e01c8063715018a61161005b578063715018a6146100ec5780637535d246146100f65780638da5cb5b14610114578063f2fde38b146101325761007d565b80630542975c146100825780631b11d0ff146100a057806352c4cb14146100d0575b600080fd5b61008a61014e565b60405161009791906106a9565b60405180910390f35b6100ba60048036038101906100b591906107a7565b610172565b6040516100c7919061085c565b60405180910390f35b6100ea60048036038101906100e59190610877565b61022f565b005b6100f46102c6565b005b6100fe61034e565b60405161010b91906108c5565b60405180910390f35b61011c610372565b60405161012991906108ef565b60405180910390f35b61014c60048036038101906101479190610877565b61039b565b005b7f000000000000000000000000000000000000000000000000000000000000000081565b60008061017f8787610493565b90508773ffffffffffffffffffffffffffffffffffffffff1663095ea7b37f0000000000000000000000000000000000000000000000000000000000000000836040518363ffffffff1660e01b81526004016101dc929190610919565b6020604051808303816000875af11580156101fb573d6000803e3d6000fd5b505050506040513d601f19601f8201168201806040525081019061021f919061096e565b5060019150509695505050505050565b6102376104a9565b73ffffffffffffffffffffffffffffffffffffffff16610255610372565b73ffffffffffffffffffffffffffffffffffffffff16146102ab576040517f08c379a00000000000000000000000000000000000000000000000000000000081526004016102a2906109f8565b60405180910390fd5b600067016345785d8a000090506102c282826104b1565b5050565b6102ce6104a9565b73ffffffffffffffffffffffffffffffffffffffff166102ec610372565b73ffffffffffffffffffffffffffffffffffffffff1614610342576040517f08c379a0000000000000000000000000000000000000000000000000000000008152600401610339906109f8565b60405180910390fd5b61034c6000610566565b565b7f000000000000000000000000000000000000000000000000000000000000000081565b60008060009054906101000a900473ffffffffffffffffffffffffffffffffffffffff16905090565b6103a36104a9565b73ffffffffffffffffffffffffffffffffffffffff166103c1610372565b73ffffffffffffffffffffffffffffffffffffffff1614610417576040517f08c379a000000000000000000000000000000000000000000000000000000000815260040161040e906109f8565b60405180910390fd5b600073ffffffffffffffffffffffffffffffffffffffff168173ffffffffffffffffffffffffffffffffffffffff161415610487576040517f08c379a000000000000000000000000000000000000000000000000000000000815260040161047e90610a8a565b60405180910390fd5b61049081610566565b50565b600081836104a19190610ad9565b905092915050565b600033905090565b6000309050600060405180602001604052806000815250905060007f000000000000000000000000000000000000000000000000000000000000000073ffffffffffffffffffffffffffffffffffffffff166342b0b77c84878786866040518663ffffffff1660e01b815260040161052d959493929190610be5565b600060405180830381600087803b15801561054757600080fd5b505af115801561055b573d6000803e3d6000fd5b505050505050505050565b60008060009054906101000a900473ffffffffffffffffffffffffffffffffffffffff169050816000806101000a81548173ffffffffffffffffffffffffffffffffffffffff021916908373ffffffffffffffffffffffffffffffffffffffff1602179055508173ffffffffffffffffffffffffffffffffffffffff168173ffffffffffffffffffffffffffffffffffffffff167f8be0079c531659141344cd1fd0a4f28419497f9722a3daafe3b4186f6b6457e060405160405180910390a35050565b600073ffffffffffffffffffffffffffffffffffffffff82169050919050565b6000819050919050565b600061066f61066a6106658461062a565b61064a565b61062a565b9050919050565b600061068182610654565b9050919050565b600061069382610676565b9050919050565b6106a381610688565b82525050565b60006020820190506106be600083018461069a565b92915050565b600080fd5b600080fd5b60006106d98261062a565b9050919050565b6106e9816106ce565b81146106f457600080fd5b50565b600081359050610706816106e0565b92915050565b6000819050919050565b61071f8161070c565b811461072a57600080fd5b50565b60008135905061073c81610716565b92915050565b600080fd5b600080fd5b600080fd5b60008083601f84011261076757610766610742565b5b8235905067ffffffffffffffff81111561078457610783610747565b5b6020830191508360018202830111156107a05761079f61074c565b5b9250929050565b60008060008060008060a087890312156107c4576107c36106c4565b5b60006107d289828a016106f7565b96505060206107e389828a0161072d565b95505060406107f489828a0161072d565b945050606061080589828a016106f7565b935050608087013567ffffffffffffffff811115610826576108256106c9565b5b61083289828a01610751565b92509250509295509295509295565b60008115159050919050565b61085681610841565b82525050565b6000602082019050610871600083018461084d565b92915050565b60006020828403121561088d5761088c6106c4565b5b600061089b848285016106f7565b91505092915050565b60006108af82610676565b9050919050565b6108bf816108a4565b82525050565b60006020820190506108da60008301846108b6565b92915050565b6108e9816106ce565b82525050565b600060208201905061090460008301846108e0565b92915050565b6109138161070c565b82525050565b600060408201905061092e60008301856108e0565b61093b602083018461090a565b9392505050565b61094b81610841565b811461095657600080fd5b50565b60008151905061096881610942565b92915050565b600060208284031215610984576109836106c4565b5b600061099284828501610959565b91505092915050565b600082825260208201905092915050565b7f4f776e61626c653a2063616c6c6572206973206e6f7420746865206f776e6572600082015250565b60006109e260208361099b565b91506109ed826109ac565b602082019050919050565b60006020820190508181036000830152610a11816109d5565b9050919050565b7f4f776e61626c653a206e6577206f776e657220697320746865207a65726f206160008201527f6464726573730000000000000000000000000000000000000000000000000000602082015250565b6000610a7460268361099b565b9150610a7f82610a18565b604082019050919050565b60006020820190508181036000830152610aa381610a67565b9050919050565b7f4e487b7100000000000000000000000000000000000000000000000000000000600052601160045260246000fd5b6000610ae48261070c565b9150610aef8361070c565b9250827fffffffffffffffffffffffffffffffffffffffffffffffffffffffffffffffff03821115610b2457610b23610aaa565b5b828201905092915050565b600081519050919050565b600082825260208201905092915050565b60005b83811015610b69578082015181840152602081019050610b4e565b83811115610b78576000848401525b50505050565b6000601f19601f8301169050919050565b6000610b9a82610b2f565b610ba48185610b3a565b9350610bb4818560208601610b4b565b610bbd81610b7e565b840191505092915050565b600061ffff82169050919050565b610bdf81610bc8565b82525050565b600060a082019050610bfa60008301886108e0565b610c0760208301876108e0565b610c14604083018661090a565b8181036060830152610c268185610b8f565b9050610c356080830184610bd6565b969550505050505056fea2646970667358221220330246ed972b18e70eccd9600d750b4b87653fc6ac6ed3a693348f202a1d131e64736f6c634300080a0033",
  "immutableReferences": {
    "14": [
      {
        "length": 32,
        "start": 336
      },
      {
        "length": 32,
        "start": 415
      }
    ],
    "18": [
      {
        "length": 32,
        "start": 848
      },
      {
        "length": 32,
        "start": 1230
      }
    ]
  },
  "source": "// SPDX-License-Identifier: MIT\r\npragma solidity 0.8.10;\r\n\r\nimport \"@aave/core-v3/contracts/flashloan/base/FlashLoanSimpleReceiverBase.sol\";\r\nimport \"@openzeppelin/contracts/access/Ownable.sol\";\r\nimport \"@openzeppelin/contracts/token/ERC20/IERC20.sol\";\r\nimport \"@openzeppelin/contracts/utils/math/SafeMath.sol\";\r\n\r\ncontract PrintMoney is FlashLoanSimpleReceiverBase, Ownable {\r\n    constructor(IPoolAddressesProvider _lendingPool)\r\n        FlashLoanSimpleReceiverBase(_lendingPool)\r\n    {}\r\n\r\n    function executeOperation(\r\n        address asset,\r\n        uint256 amount,\r\n        uint256 premium,\r\n        address initiator,\r\n        bytes calldata params\r\n    ) external override returns (bool) {\r\n        //\r\n        // This contract now has the funds requested.\r\n        // Your logic goes here.\r\n        //\r\n\r\n        // At the end of your logic above, this contract owes\r\n        // the flashloaned amounts + premiums.\r\n        // Therefore ensure your contract has enough to repay\r\n        // these amounts.\r\n\r\n        // Approve the LendingPool contract allowance to *pull* the owed amount\r\n\r\n        uint256 amountOwing = SafeMath.add(amount, premium);\r\n        IERC20(asset).approve(address(ADDRESSES_PROVIDER), amountOwing);\r\n\r\n        return true;\r\n    }\r\n\r\n    function _flashloan(address assets, uint256 amounts)\r\n        internal\r\n    {\r\n        address recieverAddress = address(this);\r\n        bytes memory params = \"\";\r\n        uint16 referralCode = 0;\r\n\r\n        POOL.flashLoanSimple(\r\n            recieverAddress,\r\n            assets,\r\n            amounts,\r\n            params,\r\n            referralCode\r\n        );\r\n    }\r\n\r\n    /*\r\n     *  Flash loan 100000000000000000 wei (0.1 ether) worth of `_asset`\r\n     */\r\n    function brrr(address _asset) public onlyOwner {\r\n        uint256 amount = 0.1 ether;\r\n\r\n        _flashloan(_asset, amount);\r\n    }\r\n}\r\n",
  "sourcePath": "C:\\Users\\nickn\\Flashloan\\src\\contracts\\PrintMoney.sol",
  "compiler": {
    "name": "solc",
    "version": "0.8.10+commit.fc410830.Emscripten.clang"
  },
  "schemaVersion": "3.4.4",
  "updatedAt": "2022-04-08T04:14:08.746Z",
  "devdoc": {
    "kind": "dev",
    "methods": {
      "executeOperation(address,uint256,uint256,address,bytes)": {
        "details": "Ensure that the contract can return the debt + premium, e.g., has      enough funds to repay and has approved the Pool to pull the total amount",
        "params": {
          "amount": "The amount of the flash-borrowed asset",
          "asset": "The address of the flash-borrowed asset",
          "initiator": "The address of the flashloan initiator",
          "params": "The byte-encoded params passed when initiating the flashloan",
          "premium": "The fee of the flash-borrowed asset"
        },
        "returns": {
          "_0": "True if the execution of the operation succeeds, false otherwise"
        }
      },
      "owner()": {
        "details": "Returns the address of the current owner."
      },
      "renounceOwnership()": {
        "details": "Leaves the contract without owner. It will not be possible to call `onlyOwner` functions anymore. Can only be called by the current owner. NOTE: Renouncing ownership will leave the contract without an owner, thereby removing any functionality that is only available to the owner."
      },
      "transferOwnership(address)": {
        "details": "Transfers ownership of the contract to a new account (`newOwner`). Can only be called by the current owner."
      }
    },
    "version": 1
  },
  "userdoc": {
    "kind": "user",
    "methods": {
      "executeOperation(address,uint256,uint256,address,bytes)": {
        "notice": "Executes an operation after receiving the flash-borrowed asset"
      }
    },
    "version": 1
  }
}